{
  "contractName": "rcbNFT",
  "abi": [
    {
      "inputs": [],
      "stateMutability": "nonpayable",
      "type": "constructor"
    },
    {
      "anonymous": false,
      "inputs": [
        {
          "indexed": true,
          "internalType": "address",
          "name": "owner",
          "type": "address"
        },
        {
          "indexed": true,
          "internalType": "address",
          "name": "approved",
          "type": "address"
        },
        {
          "indexed": true,
          "internalType": "uint256",
          "name": "tokenId",
          "type": "uint256"
        }
      ],
      "name": "Approval",
      "type": "event"
    },
    {
      "anonymous": false,
      "inputs": [
        {
          "indexed": true,
          "internalType": "address",
          "name": "owner",
          "type": "address"
        },
        {
          "indexed": true,
          "internalType": "address",
          "name": "operator",
          "type": "address"
        },
        {
          "indexed": false,
          "internalType": "bool",
          "name": "approved",
          "type": "bool"
        }
      ],
      "name": "ApprovalForAll",
      "type": "event"
    },
    {
      "anonymous": false,
      "inputs": [
        {
          "indexed": true,
          "internalType": "address",
          "name": "previousOwner",
          "type": "address"
        },
        {
          "indexed": true,
          "internalType": "address",
          "name": "newOwner",
          "type": "address"
        }
      ],
      "name": "OwnershipTransferred",
      "type": "event"
    },
    {
      "anonymous": false,
      "inputs": [
        {
          "indexed": true,
          "internalType": "address",
          "name": "from",
          "type": "address"
        },
        {
          "indexed": true,
          "internalType": "address",
          "name": "to",
          "type": "address"
        },
        {
          "indexed": true,
          "internalType": "uint256",
          "name": "tokenId",
          "type": "uint256"
        }
      ],
      "name": "Transfer",
      "type": "event"
    },
    {
      "stateMutability": "payable",
      "type": "fallback",
      "payable": true
    },
    {
      "inputs": [],
      "name": "_paused",
      "outputs": [
        {
          "internalType": "bool",
          "name": "",
          "type": "bool"
        }
      ],
      "stateMutability": "view",
      "type": "function",
      "constant": true
    },
    {
      "inputs": [],
      "name": "_price",
      "outputs": [
        {
          "internalType": "uint256",
          "name": "",
          "type": "uint256"
        }
      ],
      "stateMutability": "view",
      "type": "function",
      "constant": true
    },
    {
      "inputs": [
        {
          "internalType": "address",
          "name": "to",
          "type": "address"
        },
        {
          "internalType": "uint256",
          "name": "tokenId",
          "type": "uint256"
        }
      ],
      "name": "approve",
      "outputs": [],
      "stateMutability": "nonpayable",
      "type": "function"
    },
    {
      "inputs": [
        {
          "internalType": "address",
          "name": "owner",
          "type": "address"
        }
      ],
      "name": "balanceOf",
      "outputs": [
        {
          "internalType": "uint256",
          "name": "",
          "type": "uint256"
        }
      ],
      "stateMutability": "view",
      "type": "function",
      "constant": true
    },
    {
      "inputs": [
        {
          "internalType": "uint256",
          "name": "tokenId",
          "type": "uint256"
        }
      ],
      "name": "getApproved",
      "outputs": [
        {
          "internalType": "address",
          "name": "",
          "type": "address"
        }
      ],
      "stateMutability": "view",
      "type": "function",
      "constant": true
    },
    {
      "inputs": [
        {
          "internalType": "address",
          "name": "owner",
          "type": "address"
        },
        {
          "internalType": "address",
          "name": "operator",
          "type": "address"
        }
      ],
      "name": "isApprovedForAll",
      "outputs": [
        {
          "internalType": "bool",
          "name": "",
          "type": "bool"
        }
      ],
      "stateMutability": "view",
      "type": "function",
      "constant": true
    },
    {
      "inputs": [],
      "name": "maxTokenIds",
      "outputs": [
        {
          "internalType": "uint256",
          "name": "",
          "type": "uint256"
        }
      ],
      "stateMutability": "view",
      "type": "function",
      "constant": true
    },
    {
      "inputs": [],
      "name": "name",
      "outputs": [
        {
          "internalType": "string",
          "name": "",
          "type": "string"
        }
      ],
      "stateMutability": "view",
      "type": "function",
      "constant": true
    },
    {
      "inputs": [],
      "name": "owner",
      "outputs": [
        {
          "internalType": "address",
          "name": "",
          "type": "address"
        }
      ],
      "stateMutability": "view",
      "type": "function",
      "constant": true
    },
    {
      "inputs": [
        {
          "internalType": "uint256",
          "name": "tokenId",
          "type": "uint256"
        }
      ],
      "name": "ownerOf",
      "outputs": [
        {
          "internalType": "address",
          "name": "",
          "type": "address"
        }
      ],
      "stateMutability": "view",
      "type": "function",
      "constant": true
    },
    {
      "inputs": [],
      "name": "renounceOwnership",
      "outputs": [],
      "stateMutability": "nonpayable",
      "type": "function"
    },
    {
      "inputs": [
        {
          "internalType": "address",
          "name": "from",
          "type": "address"
        },
        {
          "internalType": "address",
          "name": "to",
          "type": "address"
        },
        {
          "internalType": "uint256",
          "name": "tokenId",
          "type": "uint256"
        }
      ],
      "name": "safeTransferFrom",
      "outputs": [],
      "stateMutability": "nonpayable",
      "type": "function"
    },
    {
      "inputs": [
        {
          "internalType": "address",
          "name": "from",
          "type": "address"
        },
        {
          "internalType": "address",
          "name": "to",
          "type": "address"
        },
        {
          "internalType": "uint256",
          "name": "tokenId",
          "type": "uint256"
        },
        {
          "internalType": "bytes",
          "name": "_data",
          "type": "bytes"
        }
      ],
      "name": "safeTransferFrom",
      "outputs": [],
      "stateMutability": "nonpayable",
      "type": "function"
    },
    {
      "inputs": [
        {
          "internalType": "address",
          "name": "operator",
          "type": "address"
        },
        {
          "internalType": "bool",
          "name": "approved",
          "type": "bool"
        }
      ],
      "name": "setApprovalForAll",
      "outputs": [],
      "stateMutability": "nonpayable",
      "type": "function"
    },
    {
      "inputs": [
        {
          "internalType": "bytes4",
          "name": "interfaceId",
          "type": "bytes4"
        }
      ],
      "name": "supportsInterface",
      "outputs": [
        {
          "internalType": "bool",
          "name": "",
          "type": "bool"
        }
      ],
      "stateMutability": "view",
      "type": "function",
      "constant": true
    },
    {
      "inputs": [],
      "name": "symbol",
      "outputs": [
        {
          "internalType": "string",
          "name": "",
          "type": "string"
        }
      ],
      "stateMutability": "view",
      "type": "function",
      "constant": true
    },
    {
      "inputs": [
        {
          "internalType": "uint256",
          "name": "index",
          "type": "uint256"
        }
      ],
      "name": "tokenByIndex",
      "outputs": [
        {
          "internalType": "uint256",
          "name": "",
          "type": "uint256"
        }
      ],
      "stateMutability": "view",
      "type": "function",
      "constant": true
    },
    {
      "inputs": [],
      "name": "tokenIds",
      "outputs": [
        {
          "internalType": "uint256",
          "name": "",
          "type": "uint256"
        }
      ],
      "stateMutability": "view",
      "type": "function",
      "constant": true
    },
    {
      "inputs": [
        {
          "internalType": "address",
          "name": "owner",
          "type": "address"
        },
        {
          "internalType": "uint256",
          "name": "index",
          "type": "uint256"
        }
      ],
      "name": "tokenOfOwnerByIndex",
      "outputs": [
        {
          "internalType": "uint256",
          "name": "",
          "type": "uint256"
        }
      ],
      "stateMutability": "view",
      "type": "function",
      "constant": true
    },
    {
      "inputs": [],
      "name": "totalSupply",
      "outputs": [
        {
          "internalType": "uint256",
          "name": "",
          "type": "uint256"
        }
      ],
      "stateMutability": "view",
      "type": "function",
      "constant": true
    },
    {
      "inputs": [
        {
          "internalType": "address",
          "name": "from",
          "type": "address"
        },
        {
          "internalType": "address",
          "name": "to",
          "type": "address"
        },
        {
          "internalType": "uint256",
          "name": "tokenId",
          "type": "uint256"
        }
      ],
      "name": "transferFrom",
      "outputs": [],
      "stateMutability": "nonpayable",
      "type": "function"
    },
    {
      "inputs": [
        {
          "internalType": "address",
          "name": "newOwner",
          "type": "address"
        }
      ],
      "name": "transferOwnership",
      "outputs": [],
      "stateMutability": "nonpayable",
      "type": "function"
    },
    {
      "stateMutability": "payable",
      "type": "receive",
      "payable": true
    },
    {
      "inputs": [
        {
          "internalType": "uint256",
          "name": "id",
          "type": "uint256"
        }
      ],
      "name": "mint",
      "outputs": [],
      "stateMutability": "payable",
      "type": "function",
      "payable": true
    },
    {
      "inputs": [
        {
          "internalType": "uint256",
          "name": "tokenId",
          "type": "uint256"
        }
      ],
      "name": "tokenURI",
      "outputs": [
        {
          "internalType": "string",
          "name": "",
          "type": "string"
        }
      ],
      "stateMutability": "view",
      "type": "function",
      "constant": true
    },
    {
      "inputs": [
        {
          "internalType": "bool",
          "name": "val",
          "type": "bool"
        }
      ],
      "name": "setPaused",
      "outputs": [],
      "stateMutability": "nonpayable",
      "type": "function"
    },
    {
      "inputs": [],
      "name": "withdraw",
      "outputs": [],
      "stateMutability": "nonpayable",
      "type": "function"
    }
  ],
  "bytecode": "0x608060405260405180606001604052806036815260200162003eb060369139600b90805190602001906200003592919062000236565b506040518060400160405280600581526020017f2e6a736f6e000000000000000000000000000000000000000000000000000000815250600c90805190602001906200008392919062000236565b50662386f26fc10000600d556009600f55348015620000a157600080fd5b506040518060400160405280601581526020017f526f79616c204368616c6c656e64657273204e465400000000000000000000008152506040518060400160405280600681526020017f7263624e4654000000000000000000000000000000000000000000000000000081525081600090805190602001906200012692919062000236565b5080600190805190602001906200013f92919062000236565b50505062000162620001566200016860201b60201c565b6200017060201b60201c565b6200034a565b600033905090565b6000600a60009054906101000a900473ffffffffffffffffffffffffffffffffffffffff16905081600a60006101000a81548173ffffffffffffffffffffffffffffffffffffffff021916908373ffffffffffffffffffffffffffffffffffffffff1602179055508173ffffffffffffffffffffffffffffffffffffffff168173ffffffffffffffffffffffffffffffffffffffff167f8be0079c531659141344cd1fd0a4f28419497f9722a3daafe3b4186f6b6457e060405160405180910390a35050565b828054620002449062000315565b90600052602060002090601f016020900481019282620002685760008555620002b4565b82601f106200028357805160ff1916838001178555620002b4565b82800160010185558215620002b4579182015b82811115620002b357825182559160200191906001019062000296565b5b509050620002c39190620002c7565b5090565b5b80821115620002e2576000816000905550600101620002c8565b5090565b7f4e487b7100000000000000000000000000000000000000000000000000000000600052602260045260246000fd5b600060028204905060018216806200032e57607f821691505b602082108103620003445762000343620002e6565b5b50919050565b613b56806200035a6000396000f3fe6080604052600436106101855760003560e01c80635f769621116100d157806395d89b411161008a578063b88d4fde11610064578063b88d4fde1461056b578063c87b56dd14610594578063e985e9c5146105d1578063f2fde38b1461060e5761018c565b806395d89b41146104fb578063a0712d6814610526578063a22cb465146105425761018c565b80635f769621146103e95780636352211e1461041457806370a0823114610451578063714cff561461048e578063715018a6146104b95780638da5cb5b146104d05761018c565b806318160ddd1161013e5780632f745c59116101185780632f745c591461032f5780633ccfd60b1461036c57806342842e0e146103835780634f6ccce7146103ac5761018c565b806318160ddd146102b0578063235b6ea1146102db57806323b872dd146103065761018c565b806301ffc9a71461018e57806306fdde03146101cb578063081812fc146101f6578063095ea7b31461023357806316c38b3c1461025c57806316c61ccc146102855761018c565b3661018c57005b005b34801561019a57600080fd5b506101b560048036038101906101b091906125a0565b610637565b6040516101c291906125e8565b60405180910390f35b3480156101d757600080fd5b506101e06106b1565b6040516101ed919061269c565b60405180910390f35b34801561020257600080fd5b5061021d600480360381019061021891906126f4565b610743565b60405161022a9190612762565b60405180910390f35b34801561023f57600080fd5b5061025a600480360381019061025591906127a9565b6107c8565b005b34801561026857600080fd5b50610283600480360381019061027e9190612815565b6108df565b005b34801561029157600080fd5b5061029a610978565b6040516102a791906125e8565b60405180910390f35b3480156102bc57600080fd5b506102c561098b565b6040516102d29190612851565b60405180910390f35b3480156102e757600080fd5b506102f0610998565b6040516102fd9190612851565b60405180910390f35b34801561031257600080fd5b5061032d6004803603810190610328919061286c565b61099e565b005b34801561033b57600080fd5b50610356600480360381019061035191906127a9565b6109fe565b6040516103639190612851565b60405180910390f35b34801561037857600080fd5b50610381610aa3565b005b34801561038f57600080fd5b506103aa60048036038101906103a5919061286c565b610be1565b005b3480156103b857600080fd5b506103d360048036038101906103ce91906126f4565b610c01565b6040516103e09190612851565b60405180910390f35b3480156103f557600080fd5b506103fe610c72565b60405161040b9190612851565b60405180910390f35b34801561042057600080fd5b5061043b600480360381019061043691906126f4565b610c78565b6040516104489190612762565b60405180910390f35b34801561045d57600080fd5b50610478600480360381019061047391906128bf565b610d29565b6040516104859190612851565b60405180910390f35b34801561049a57600080fd5b506104a3610de0565b6040516104b09190612851565b60405180910390f35b3480156104c557600080fd5b506104ce610de6565b005b3480156104dc57600080fd5b506104e5610e6e565b6040516104f29190612762565b60405180910390f35b34801561050757600080fd5b50610510610e98565b60405161051d919061269c565b60405180910390f35b610540600480360381019061053b91906126f4565b610f2a565b005b34801561054e57600080fd5b50610569600480360381019061056491906128ec565b61102c565b005b34801561057757600080fd5b50610592600480360381019061058d9190612a61565b611042565b005b3480156105a057600080fd5b506105bb60048036038101906105b691906126f4565b6110a4565b6040516105c8919061269c565b60405180910390f35b3480156105dd57600080fd5b506105f860048036038101906105f39190612ae4565b61114e565b60405161060591906125e8565b60405180910390f35b34801561061a57600080fd5b50610635600480360381019061063091906128bf565b6111e2565b005b60007f780e9d63000000000000000000000000000000000000000000000000000000007bffffffffffffffffffffffffffffffffffffffffffffffffffffffff1916827bffffffffffffffffffffffffffffffffffffffffffffffffffffffff191614806106aa57506106a9826112d9565b5b9050919050565b6060600080546106c090612b53565b80601f01602080910402602001604051908101604052809291908181526020018280546106ec90612b53565b80156107395780601f1061070e57610100808354040283529160200191610739565b820191906000526020600020905b81548152906001019060200180831161071c57829003601f168201915b5050505050905090565b600061074e826113bb565b61078d576040517f08c379a000000000000000000000000000000000000000000000000000000000815260040161078490612bf6565b60405180910390fd5b6004600083815260200190815260200160002060009054906101000a900473ffffffffffffffffffffffffffffffffffffffff169050919050565b60006107d382610c78565b90508073ffffffffffffffffffffffffffffffffffffffff168373ffffffffffffffffffffffffffffffffffffffff1603610843576040517f08c379a000000000000000000000000000000000000000000000000000000000815260040161083a90612c88565b60405180910390fd5b8073ffffffffffffffffffffffffffffffffffffffff16610862611427565b73ffffffffffffffffffffffffffffffffffffffff16148061089157506108908161088b611427565b61114e565b5b6108d0576040517f08c379a00000000000000000000000000000000000000000000000000000000081526004016108c790612d1a565b60405180910390fd5b6108da838361142f565b505050565b6108e7611427565b73ffffffffffffffffffffffffffffffffffffffff16610905610e6e565b73ffffffffffffffffffffffffffffffffffffffff161461095b576040517f08c379a000000000000000000000000000000000000000000000000000000000815260040161095290612d86565b60405180910390fd5b80600e60006101000a81548160ff02191690831515021790555050565b600e60009054906101000a900460ff1681565b6000600880549050905090565b600d5481565b6109af6109a9611427565b826114e8565b6109ee576040517f08c379a00000000000000000000000000000000000000000000000000000000081526004016109e590612e18565b60405180910390fd5b6109f98383836115c6565b505050565b6000610a0983610d29565b8210610a4a576040517f08c379a0000000000000000000000000000000000000000000000000000000008152600401610a4190612eaa565b60405180910390fd5b600660008473ffffffffffffffffffffffffffffffffffffffff1673ffffffffffffffffffffffffffffffffffffffff168152602001908152602001600020600083815260200190815260200160002054905092915050565b610aab611427565b73ffffffffffffffffffffffffffffffffffffffff16610ac9610e6e565b73ffffffffffffffffffffffffffffffffffffffff1614610b1f576040517f08c379a0000000000000000000000000000000000000000000000000000000008152600401610b1690612d86565b60405180910390fd5b6000610b29610e6e565b9050600047905060008273ffffffffffffffffffffffffffffffffffffffff1682604051610b5690612efb565b60006040518083038185875af1925050503d8060008114610b93576040519150601f19603f3d011682016040523d82523d6000602084013e610b98565b606091505b5050905080610bdc576040517f08c379a0000000000000000000000000000000000000000000000000000000008152600401610bd390612f5c565b60405180910390fd5b505050565b610bfc83838360405180602001604052806000815250611042565b505050565b6000610c0b61098b565b8210610c4c576040517f08c379a0000000000000000000000000000000000000000000000000000000008152600401610c4390612fee565b60405180910390fd5b60088281548110610c6057610c5f61300e565b5b90600052602060002001549050919050565b600f5481565b6000806002600084815260200190815260200160002060009054906101000a900473ffffffffffffffffffffffffffffffffffffffff169050600073ffffffffffffffffffffffffffffffffffffffff168173ffffffffffffffffffffffffffffffffffffffff1603610d20576040517f08c379a0000000000000000000000000000000000000000000000000000000008152600401610d17906130af565b60405180910390fd5b80915050919050565b60008073ffffffffffffffffffffffffffffffffffffffff168273ffffffffffffffffffffffffffffffffffffffff1603610d99576040517f08c379a0000000000000000000000000000000000000000000000000000000008152600401610d9090613141565b60405180910390fd5b600360008373ffffffffffffffffffffffffffffffffffffffff1673ffffffffffffffffffffffffffffffffffffffff168152602001908152602001600020549050919050565b60105481565b610dee611427565b73ffffffffffffffffffffffffffffffffffffffff16610e0c610e6e565b73ffffffffffffffffffffffffffffffffffffffff1614610e62576040517f08c379a0000000000000000000000000000000000000000000000000000000008152600401610e5990612d86565b60405180910390fd5b610e6c600061182c565b565b6000600a60009054906101000a900473ffffffffffffffffffffffffffffffffffffffff16905090565b606060018054610ea790612b53565b80601f0160208091040260200160405190810160405280929190818152602001828054610ed390612b53565b8015610f205780601f10610ef557610100808354040283529160200191610f20565b820191906000526020600020905b815481529060010190602001808311610f0357829003601f168201915b5050505050905090565b600e60009054906101000a900460ff1615610f7a576040517f08c379a0000000000000000000000000000000000000000000000000000000008152600401610f71906131ad565b60405180910390fd5b600f5460105410610fc0576040517f08c379a0000000000000000000000000000000000000000000000000000000008152600401610fb79061323f565b60405180910390fd5b600d54341015611005576040517f08c379a0000000000000000000000000000000000000000000000000000000008152600401610ffc906132ab565b60405180910390fd5b60016010600082825461101891906132fa565b9250508190555061102933826118f2565b50565b61103e611037611427565b8383611910565b5050565b61105361104d611427565b836114e8565b611092576040517f08c379a000000000000000000000000000000000000000000000000000000000815260040161108990612e18565b60405180910390fd5b61109e84848484611a7c565b50505050565b60606110af826113bb565b6110ee576040517f08c379a00000000000000000000000000000000000000000000000000000000081526004016110e5906133c2565b60405180910390fd5b60006110f8611ad8565b905060008151116111185760405180602001604052806000815250611146565b8061112284611b6a565b600c604051602001611136939291906134b2565b6040516020818303038152906040525b915050919050565b6000600560008473ffffffffffffffffffffffffffffffffffffffff1673ffffffffffffffffffffffffffffffffffffffff16815260200190815260200160002060008373ffffffffffffffffffffffffffffffffffffffff1673ffffffffffffffffffffffffffffffffffffffff16815260200190815260200160002060009054906101000a900460ff16905092915050565b6111ea611427565b73ffffffffffffffffffffffffffffffffffffffff16611208610e6e565b73ffffffffffffffffffffffffffffffffffffffff161461125e576040517f08c379a000000000000000000000000000000000000000000000000000000000815260040161125590612d86565b60405180910390fd5b600073ffffffffffffffffffffffffffffffffffffffff168173ffffffffffffffffffffffffffffffffffffffff16036112cd576040517f08c379a00000000000000000000000000000000000000000000000000000000081526004016112c490613555565b60405180910390fd5b6112d68161182c565b50565b60007f80ac58cd000000000000000000000000000000000000000000000000000000007bffffffffffffffffffffffffffffffffffffffffffffffffffffffff1916827bffffffffffffffffffffffffffffffffffffffffffffffffffffffff191614806113a457507f5b5e139f000000000000000000000000000000000000000000000000000000007bffffffffffffffffffffffffffffffffffffffffffffffffffffffff1916827bffffffffffffffffffffffffffffffffffffffffffffffffffffffff1916145b806113b457506113b382611cca565b5b9050919050565b60008073ffffffffffffffffffffffffffffffffffffffff166002600084815260200190815260200160002060009054906101000a900473ffffffffffffffffffffffffffffffffffffffff1673ffffffffffffffffffffffffffffffffffffffff1614159050919050565b600033905090565b816004600083815260200190815260200160002060006101000a81548173ffffffffffffffffffffffffffffffffffffffff021916908373ffffffffffffffffffffffffffffffffffffffff160217905550808273ffffffffffffffffffffffffffffffffffffffff166114a283610c78565b73ffffffffffffffffffffffffffffffffffffffff167f8c5be1e5ebec7d5bd14f71427d1e84f3dd0314c0f7b2291e5b200ac8c7c3b92560405160405180910390a45050565b60006114f3826113bb565b611532576040517f08c379a0000000000000000000000000000000000000000000000000000000008152600401611529906135e7565b60405180910390fd5b600061153d83610c78565b90508073ffffffffffffffffffffffffffffffffffffffff168473ffffffffffffffffffffffffffffffffffffffff1614806115ac57508373ffffffffffffffffffffffffffffffffffffffff1661159484610743565b73ffffffffffffffffffffffffffffffffffffffff16145b806115bd57506115bc818561114e565b5b91505092915050565b8273ffffffffffffffffffffffffffffffffffffffff166115e682610c78565b73ffffffffffffffffffffffffffffffffffffffff161461163c576040517f08c379a000000000000000000000000000000000000000000000000000000000815260040161163390613679565b60405180910390fd5b600073ffffffffffffffffffffffffffffffffffffffff168273ffffffffffffffffffffffffffffffffffffffff16036116ab576040517f08c379a00000000000000000000000000000000000000000000000000000000081526004016116a29061370b565b60405180910390fd5b6116b6838383611d34565b6116c160008261142f565b6001600360008573ffffffffffffffffffffffffffffffffffffffff1673ffffffffffffffffffffffffffffffffffffffff1681526020019081526020016000206000828254611711919061372b565b925050819055506001600360008473ffffffffffffffffffffffffffffffffffffffff1673ffffffffffffffffffffffffffffffffffffffff168152602001908152602001600020600082825461176891906132fa565b92505081905550816002600083815260200190815260200160002060006101000a81548173ffffffffffffffffffffffffffffffffffffffff021916908373ffffffffffffffffffffffffffffffffffffffff160217905550808273ffffffffffffffffffffffffffffffffffffffff168473ffffffffffffffffffffffffffffffffffffffff167fddf252ad1be2c89b69c2b068fc378daa952ba7f163c4a11628f55a4df523b3ef60405160405180910390a4611827838383611e46565b505050565b6000600a60009054906101000a900473ffffffffffffffffffffffffffffffffffffffff16905081600a60006101000a81548173ffffffffffffffffffffffffffffffffffffffff021916908373ffffffffffffffffffffffffffffffffffffffff1602179055508173ffffffffffffffffffffffffffffffffffffffff168173ffffffffffffffffffffffffffffffffffffffff167f8be0079c531659141344cd1fd0a4f28419497f9722a3daafe3b4186f6b6457e060405160405180910390a35050565b61190c828260405180602001604052806000815250611e4b565b5050565b8173ffffffffffffffffffffffffffffffffffffffff168373ffffffffffffffffffffffffffffffffffffffff160361197e576040517f08c379a0000000000000000000000000000000000000000000000000000000008152600401611975906137ab565b60405180910390fd5b80600560008573ffffffffffffffffffffffffffffffffffffffff1673ffffffffffffffffffffffffffffffffffffffff16815260200190815260200160002060008473ffffffffffffffffffffffffffffffffffffffff1673ffffffffffffffffffffffffffffffffffffffff16815260200190815260200160002060006101000a81548160ff0219169083151502179055508173ffffffffffffffffffffffffffffffffffffffff168373ffffffffffffffffffffffffffffffffffffffff167f17307eab39ab6107e8899845ad3d59bd9653f200f220920489ca2b5937696c3183604051611a6f91906125e8565b60405180910390a3505050565b611a878484846115c6565b611a9384848484611ea6565b611ad2576040517f08c379a0000000000000000000000000000000000000000000000000000000008152600401611ac99061383d565b60405180910390fd5b50505050565b6060600b8054611ae790612b53565b80601f0160208091040260200160405190810160405280929190818152602001828054611b1390612b53565b8015611b605780601f10611b3557610100808354040283529160200191611b60565b820191906000526020600020905b815481529060010190602001808311611b4357829003601f168201915b5050505050905090565b606060008203611bb1576040518060400160405280600181526020017f30000000000000000000000000000000000000000000000000000000000000008152509050611cc5565b600082905060005b60008214611be3578080611bcc9061385d565b915050600a82611bdc91906138d4565b9150611bb9565b60008167ffffffffffffffff811115611bff57611bfe612936565b5b6040519080825280601f01601f191660200182016040528015611c315781602001600182028036833780820191505090505b5090505b60008514611cbe57600182611c4a919061372b565b9150600a85611c599190613905565b6030611c6591906132fa565b60f81b818381518110611c7b57611c7a61300e565b5b60200101907effffffffffffffffffffffffffffffffffffffffffffffffffffffffffffff1916908160001a905350600a85611cb791906138d4565b9450611c35565b8093505050505b919050565b60007f01ffc9a7000000000000000000000000000000000000000000000000000000007bffffffffffffffffffffffffffffffffffffffffffffffffffffffff1916827bffffffffffffffffffffffffffffffffffffffffffffffffffffffff1916149050919050565b611d3f83838361202d565b600073ffffffffffffffffffffffffffffffffffffffff168373ffffffffffffffffffffffffffffffffffffffff1603611d8157611d7c81612032565b611dc0565b8173ffffffffffffffffffffffffffffffffffffffff168373ffffffffffffffffffffffffffffffffffffffff1614611dbf57611dbe838261207b565b5b5b600073ffffffffffffffffffffffffffffffffffffffff168273ffffffffffffffffffffffffffffffffffffffff1603611e0257611dfd816121e8565b611e41565b8273ffffffffffffffffffffffffffffffffffffffff168273ffffffffffffffffffffffffffffffffffffffff1614611e4057611e3f82826122b9565b5b5b505050565b505050565b611e558383612338565b611e626000848484611ea6565b611ea1576040517f08c379a0000000000000000000000000000000000000000000000000000000008152600401611e989061383d565b60405180910390fd5b505050565b6000611ec78473ffffffffffffffffffffffffffffffffffffffff16612511565b15612020578373ffffffffffffffffffffffffffffffffffffffff1663150b7a02611ef0611427565b8786866040518563ffffffff1660e01b8152600401611f12949392919061398b565b6020604051808303816000875af1925050508015611f4e57506040513d601f19601f82011682018060405250810190611f4b91906139ec565b60015b611fd0573d8060008114611f7e576040519150601f19603f3d011682016040523d82523d6000602084013e611f83565b606091505b506000815103611fc8576040517f08c379a0000000000000000000000000000000000000000000000000000000008152600401611fbf9061383d565b60405180910390fd5b805181602001fd5b63150b7a0260e01b7bffffffffffffffffffffffffffffffffffffffffffffffffffffffff1916817bffffffffffffffffffffffffffffffffffffffffffffffffffffffff191614915050612025565b600190505b949350505050565b505050565b6008805490506009600083815260200190815260200160002081905550600881908060018154018082558091505060019003906000526020600020016000909190919091505550565b6000600161208884610d29565b612092919061372b565b9050600060076000848152602001908152602001600020549050818114612177576000600660008673ffffffffffffffffffffffffffffffffffffffff1673ffffffffffffffffffffffffffffffffffffffff168152602001908152602001600020600084815260200190815260200160002054905080600660008773ffffffffffffffffffffffffffffffffffffffff1673ffffffffffffffffffffffffffffffffffffffff168152602001908152602001600020600084815260200190815260200160002081905550816007600083815260200190815260200160002081905550505b6007600084815260200190815260200160002060009055600660008573ffffffffffffffffffffffffffffffffffffffff1673ffffffffffffffffffffffffffffffffffffffff16815260200190815260200160002060008381526020019081526020016000206000905550505050565b600060016008805490506121fc919061372b565b905060006009600084815260200190815260200160002054905060006008838154811061222c5761222b61300e565b5b90600052602060002001549050806008838154811061224e5761224d61300e565b5b90600052602060002001819055508160096000838152602001908152602001600020819055506009600085815260200190815260200160002060009055600880548061229d5761229c613a19565b5b6001900381819060005260206000200160009055905550505050565b60006122c483610d29565b905081600660008573ffffffffffffffffffffffffffffffffffffffff1673ffffffffffffffffffffffffffffffffffffffff168152602001908152602001600020600083815260200190815260200160002081905550806007600084815260200190815260200160002081905550505050565b600073ffffffffffffffffffffffffffffffffffffffff168273ffffffffffffffffffffffffffffffffffffffff16036123a7576040517f08c379a000000000000000000000000000000000000000000000000000000000815260040161239e90613a94565b60405180910390fd5b6123b0816113bb565b156123f0576040517f08c379a00000000000000000000000000000000000000000000000000000000081526004016123e790613b00565b60405180910390fd5b6123fc60008383611d34565b6001600360008473ffffffffffffffffffffffffffffffffffffffff1673ffffffffffffffffffffffffffffffffffffffff168152602001908152602001600020600082825461244c91906132fa565b92505081905550816002600083815260200190815260200160002060006101000a81548173ffffffffffffffffffffffffffffffffffffffff021916908373ffffffffffffffffffffffffffffffffffffffff160217905550808273ffffffffffffffffffffffffffffffffffffffff16600073ffffffffffffffffffffffffffffffffffffffff167fddf252ad1be2c89b69c2b068fc378daa952ba7f163c4a11628f55a4df523b3ef60405160405180910390a461250d60008383611e46565b5050565b6000808273ffffffffffffffffffffffffffffffffffffffff163b119050919050565b6000604051905090565b600080fd5b600080fd5b60007fffffffff0000000000000000000000000000000000000000000000000000000082169050919050565b61257d81612548565b811461258857600080fd5b50565b60008135905061259a81612574565b92915050565b6000602082840312156125b6576125b561253e565b5b60006125c48482850161258b565b91505092915050565b60008115159050919050565b6125e2816125cd565b82525050565b60006020820190506125fd60008301846125d9565b92915050565b600081519050919050565b600082825260208201905092915050565b60005b8381101561263d578082015181840152602081019050612622565b8381111561264c576000848401525b50505050565b6000601f19601f8301169050919050565b600061266e82612603565b612678818561260e565b935061268881856020860161261f565b61269181612652565b840191505092915050565b600060208201905081810360008301526126b68184612663565b905092915050565b6000819050919050565b6126d1816126be565b81146126dc57600080fd5b50565b6000813590506126ee816126c8565b92915050565b60006020828403121561270a5761270961253e565b5b6000612718848285016126df565b91505092915050565b600073ffffffffffffffffffffffffffffffffffffffff82169050919050565b600061274c82612721565b9050919050565b61275c81612741565b82525050565b60006020820190506127776000830184612753565b92915050565b61278681612741565b811461279157600080fd5b50565b6000813590506127a38161277d565b92915050565b600080604083850312156127c0576127bf61253e565b5b60006127ce85828601612794565b92505060206127df858286016126df565b9150509250929050565b6127f2816125cd565b81146127fd57600080fd5b50565b60008135905061280f816127e9565b92915050565b60006020828403121561282b5761282a61253e565b5b600061283984828501612800565b91505092915050565b61284b816126be565b82525050565b60006020820190506128666000830184612842565b92915050565b6000806000606084860312156128855761288461253e565b5b600061289386828701612794565b93505060206128a486828701612794565b92505060406128b5868287016126df565b9150509250925092565b6000602082840312156128d5576128d461253e565b5b60006128e384828501612794565b91505092915050565b600080604083850312156129035761290261253e565b5b600061291185828601612794565b925050602061292285828601612800565b9150509250929050565b600080fd5b600080fd5b7f4e487b7100000000000000000000000000000000000000000000000000000000600052604160045260246000fd5b61296e82612652565b810181811067ffffffffffffffff8211171561298d5761298c612936565b5b80604052505050565b60006129a0612534565b90506129ac8282612965565b919050565b600067ffffffffffffffff8211156129cc576129cb612936565b5b6129d582612652565b9050602081019050919050565b82818337600083830152505050565b6000612a046129ff846129b1565b612996565b905082815260208101848484011115612a2057612a1f612931565b5b612a2b8482856129e2565b509392505050565b600082601f830112612a4857612a4761292c565b5b8135612a588482602086016129f1565b91505092915050565b60008060008060808587031215612a7b57612a7a61253e565b5b6000612a8987828801612794565b9450506020612a9a87828801612794565b9350506040612aab878288016126df565b925050606085013567ffffffffffffffff811115612acc57612acb612543565b5b612ad887828801612a33565b91505092959194509250565b60008060408385031215612afb57612afa61253e565b5b6000612b0985828601612794565b9250506020612b1a85828601612794565b9150509250929050565b7f4e487b7100000000000000000000000000000000000000000000000000000000600052602260045260246000fd5b60006002820490506001821680612b6b57607f821691505b602082108103612b7e57612b7d612b24565b5b50919050565b7f4552433732313a20617070726f76656420717565727920666f72206e6f6e657860008201527f697374656e7420746f6b656e0000000000000000000000000000000000000000602082015250565b6000612be0602c8361260e565b9150612beb82612b84565b604082019050919050565b60006020820190508181036000830152612c0f81612bd3565b9050919050565b7f4552433732313a20617070726f76616c20746f2063757272656e74206f776e6560008201527f7200000000000000000000000000000000000000000000000000000000000000602082015250565b6000612c7260218361260e565b9150612c7d82612c16565b604082019050919050565b60006020820190508181036000830152612ca181612c65565b9050919050565b7f4552433732313a20617070726f76652063616c6c6572206973206e6f74206f7760008201527f6e6572206e6f7220617070726f76656420666f7220616c6c0000000000000000602082015250565b6000612d0460388361260e565b9150612d0f82612ca8565b604082019050919050565b60006020820190508181036000830152612d3381612cf7565b9050919050565b7f4f776e61626c653a2063616c6c6572206973206e6f7420746865206f776e6572600082015250565b6000612d7060208361260e565b9150612d7b82612d3a565b602082019050919050565b60006020820190508181036000830152612d9f81612d63565b9050919050565b7f4552433732313a207472616e736665722063616c6c6572206973206e6f74206f60008201527f776e6572206e6f7220617070726f766564000000000000000000000000000000602082015250565b6000612e0260318361260e565b9150612e0d82612da6565b604082019050919050565b60006020820190508181036000830152612e3181612df5565b9050919050565b7f455243373231456e756d657261626c653a206f776e657220696e646578206f7560008201527f74206f6620626f756e6473000000000000000000000000000000000000000000602082015250565b6000612e94602b8361260e565b9150612e9f82612e38565b604082019050919050565b60006020820190508181036000830152612ec381612e87565b9050919050565b600081905092915050565b50565b6000612ee5600083612eca565b9150612ef082612ed5565b600082019050919050565b6000612f0682612ed8565b9150819050919050565b7f4661696c656420746f2073656e64204574686572000000000000000000000000600082015250565b6000612f4660148361260e565b9150612f5182612f10565b602082019050919050565b60006020820190508181036000830152612f7581612f39565b9050919050565b7f455243373231456e756d657261626c653a20676c6f62616c20696e646578206f60008201527f7574206f6620626f756e64730000000000000000000000000000000000000000602082015250565b6000612fd8602c8361260e565b9150612fe382612f7c565b604082019050919050565b6000602082019050818103600083015261300781612fcb565b9050919050565b7f4e487b7100000000000000000000000000000000000000000000000000000000600052603260045260246000fd5b7f4552433732313a206f776e657220717565727920666f72206e6f6e657869737460008201527f656e7420746f6b656e0000000000000000000000000000000000000000000000602082015250565b600061309960298361260e565b91506130a48261303d565b604082019050919050565b600060208201905081810360008301526130c88161308c565b9050919050565b7f4552433732313a2062616c616e636520717565727920666f7220746865207a6560008201527f726f206164647265737300000000000000000000000000000000000000000000602082015250565b600061312b602a8361260e565b9150613136826130cf565b604082019050919050565b6000602082019050818103600083015261315a8161311e565b9050919050565b7f436f6e74726163742063757272656e746c792070617573656400000000000000600082015250565b600061319760198361260e565b91506131a282613161565b602082019050919050565b600060208201905081810360008301526131c68161318a565b9050919050565b7f457863656564206d6178696d756d2043727970746f204465767320737570706c60008201527f7900000000000000000000000000000000000000000000000000000000000000602082015250565b600061322960218361260e565b9150613234826131cd565b604082019050919050565b600060208201905081810360008301526132588161321c565b9050919050565b7f45746865722073656e74206973206e6f7420636f727265637400000000000000600082015250565b600061329560198361260e565b91506132a08261325f565b602082019050919050565b600060208201905081810360008301526132c481613288565b9050919050565b7f4e487b7100000000000000000000000000000000000000000000000000000000600052601160045260246000fd5b6000613305826126be565b9150613310836126be565b9250827fffffffffffffffffffffffffffffffffffffffffffffffffffffffffffffffff03821115613345576133446132cb565b5b828201905092915050565b7f4552433732314d657461646174613a2055524920717565727920666f72206e6f60008201527f6e6578697374656e7420746f6b656e0000000000000000000000000000000000602082015250565b60006133ac602f8361260e565b91506133b782613350565b604082019050919050565b600060208201905081810360008301526133db8161339f565b9050919050565b600081905092915050565b60006133f882612603565b61340281856133e2565b935061341281856020860161261f565b80840191505092915050565b60008190508160005260206000209050919050565b6000815461344081612b53565b61344a81866133e2565b945060018216600081146134655760018114613476576134a9565b60ff198316865281860193506134a9565b61347f8561341e565b60005b838110156134a157815481890152600182019150602081019050613482565b838801955050505b50505092915050565b60006134be82866133ed565b91506134ca82856133ed565b91506134d68284613433565b9150819050949350505050565b7f4f776e61626c653a206e6577206f776e657220697320746865207a65726f206160008201527f6464726573730000000000000000000000000000000000000000000000000000602082015250565b600061353f60268361260e565b915061354a826134e3565b604082019050919050565b6000602082019050818103600083015261356e81613532565b9050919050565b7f4552433732313a206f70657261746f7220717565727920666f72206e6f6e657860008201527f697374656e7420746f6b656e0000000000000000000000000000000000000000602082015250565b60006135d1602c8361260e565b91506135dc82613575565b604082019050919050565b60006020820190508181036000830152613600816135c4565b9050919050565b7f4552433732313a207472616e736665722066726f6d20696e636f72726563742060008201527f6f776e6572000000000000000000000000000000000000000000000000000000602082015250565b600061366360258361260e565b915061366e82613607565b604082019050919050565b6000602082019050818103600083015261369281613656565b9050919050565b7f4552433732313a207472616e7366657220746f20746865207a65726f2061646460008201527f7265737300000000000000000000000000000000000000000000000000000000602082015250565b60006136f560248361260e565b915061370082613699565b604082019050919050565b60006020820190508181036000830152613724816136e8565b9050919050565b6000613736826126be565b9150613741836126be565b925082821015613754576137536132cb565b5b828203905092915050565b7f4552433732313a20617070726f766520746f2063616c6c657200000000000000600082015250565b600061379560198361260e565b91506137a08261375f565b602082019050919050565b600060208201905081810360008301526137c481613788565b9050919050565b7f4552433732313a207472616e7366657220746f206e6f6e20455243373231526560008201527f63656976657220696d706c656d656e7465720000000000000000000000000000602082015250565b600061382760328361260e565b9150613832826137cb565b604082019050919050565b600060208201905081810360008301526138568161381a565b9050919050565b6000613868826126be565b91507fffffffffffffffffffffffffffffffffffffffffffffffffffffffffffffffff820361389a576138996132cb565b5b600182019050919050565b7f4e487b7100000000000000000000000000000000000000000000000000000000600052601260045260246000fd5b60006138df826126be565b91506138ea836126be565b9250826138fa576138f96138a5565b5b828204905092915050565b6000613910826126be565b915061391b836126be565b92508261392b5761392a6138a5565b5b828206905092915050565b600081519050919050565b600082825260208201905092915050565b600061395d82613936565b6139678185613941565b935061397781856020860161261f565b61398081612652565b840191505092915050565b60006080820190506139a06000830187612753565b6139ad6020830186612753565b6139ba6040830185612842565b81810360608301526139cc8184613952565b905095945050505050565b6000815190506139e681612574565b92915050565b600060208284031215613a0257613a0161253e565b5b6000613a10848285016139d7565b91505092915050565b7f4e487b7100000000000000000000000000000000000000000000000000000000600052603160045260246000fd5b7f4552433732313a206d696e7420746f20746865207a65726f2061646472657373600082015250565b6000613a7e60208361260e565b9150613a8982613a48565b602082019050919050565b60006020820190508181036000830152613aad81613a71565b9050919050565b7f4552433732313a20746f6b656e20616c7265616479206d696e74656400000000600082015250565b6000613aea601c8361260e565b9150613af582613ab4565b602082019050919050565b60006020820190508181036000830152613b1981613add565b905091905056fea26469706673582212208afe4cbb2109da7d065841d59366358f72ec6fc13c8cad76f51f790d9d507c6964736f6c634300080d0033697066733a2f2f516d554b56736d6b5a4478574652696261474e524e676e39584257516646473863597471537973657257364245502f",
  "immutableReferences": {},
  "source": "// SPDX-License-Identifier: MIT\r\n  pragma solidity ^0.8.4;\r\n\r\n  import \"@openzeppelin/contracts/token/ERC721/extensions/ERC721Enumerable.sol\";\r\n  import \"@openzeppelin/contracts/access/Ownable.sol\";\r\n  import \"@openzeppelin/contracts/utils/Strings.sol\";\r\n\r\n\r\n  contract rcbNFT is ERC721Enumerable, Ownable {\r\n      using Strings for uint256;\r\n      string _baseTokenURI = \"ipfs://QmUKVsmkZDxWFRibaGNRNgn9XBWQfFG8cYtqSyserW6BEP/\";\r\n      string baseExtension = \".json\";\r\n      uint256 public _price = 0.01 ether;\r\n      bool public _paused;\r\n      uint256 public maxTokenIds = 9;\r\n      uint256 public tokenIds;\r\n      \r\n      modifier onlyWhenNotPaused {\r\n          require(!_paused, \"Contract currently paused\");\r\n          _;\r\n      }\r\n\r\n      constructor () ERC721(\"Royal Challenders NFT\", \"rcbNFT\") {}\r\n\r\n      function mint(uint id) public payable onlyWhenNotPaused {\r\n          require(tokenIds < maxTokenIds, \"Exceed maximum Crypto Devs supply\");\r\n          require(msg.value >= _price, \"Ether sent is not correct\");\r\n          tokenIds += 1;\r\n          _safeMint(msg.sender, id);\r\n      }\r\n\r\n      function _baseURI() internal view virtual override returns (string memory) {\r\n          return _baseTokenURI;\r\n      }\r\n\r\n      function tokenURI(uint256 tokenId) public view virtual override returns (string memory) {\r\n        require(_exists(tokenId), \"ERC721Metadata: URI query for nonexistent token\");\r\n\r\n        string memory baseURI = _baseURI();\r\n        return bytes(baseURI).length > 0 ? string(abi.encodePacked(baseURI, tokenId.toString(),baseExtension)) : \"\";\r\n    }\r\n\r\n      function setPaused(bool val) public onlyOwner {\r\n          _paused = val;\r\n      }\r\n\r\n      function withdraw() public onlyOwner  {\r\n          address _owner = owner();\r\n          uint256 amount = address(this).balance;\r\n          (bool sent, ) =  _owner.call{value: amount}(\"\");\r\n          require(sent, \"Failed to send Ether\");\r\n      }\r\n\r\n      receive() external payable {}\r\n      fallback() external payable {}\r\n  }",
  "sourcePath": "C:\\Users\\Dinesh\\Dapps\\RCB\\contracts\\rcbNFT.sol",
  "compiler": {
    "name": "solc",
    "version": "0.8.13+commit.abaa5c0e.Emscripten.clang"
  },
  "schemaVersion": "3.4.7",
  "updatedAt": "2022-05-01T09:45:30.437Z",
  "networkType": "ethereum",
  "devdoc": {
    "kind": "dev",
    "methods": {
      "approve(address,uint256)": {
        "details": "See {IERC721-approve}."
      },
      "balanceOf(address)": {
        "details": "See {IERC721-balanceOf}."
      },
      "getApproved(uint256)": {
        "details": "See {IERC721-getApproved}."
      },
      "isApprovedForAll(address,address)": {
        "details": "See {IERC721-isApprovedForAll}."
      },
      "name()": {
        "details": "See {IERC721Metadata-name}."
      },
      "owner()": {
        "details": "Returns the address of the current owner."
      },
      "ownerOf(uint256)": {
        "details": "See {IERC721-ownerOf}."
      },
      "renounceOwnership()": {
        "details": "Leaves the contract without owner. It will not be possible to call `onlyOwner` functions anymore. Can only be called by the current owner. NOTE: Renouncing ownership will leave the contract without an owner, thereby removing any functionality that is only available to the owner."
      },
      "safeTransferFrom(address,address,uint256)": {
        "details": "See {IERC721-safeTransferFrom}."
      },
      "safeTransferFrom(address,address,uint256,bytes)": {
        "details": "See {IERC721-safeTransferFrom}."
      },
      "setApprovalForAll(address,bool)": {
        "details": "See {IERC721-setApprovalForAll}."
      },
      "supportsInterface(bytes4)": {
        "details": "See {IERC165-supportsInterface}."
      },
      "symbol()": {
        "details": "See {IERC721Metadata-symbol}."
      },
      "tokenByIndex(uint256)": {
        "details": "See {IERC721Enumerable-tokenByIndex}."
      },
      "tokenOfOwnerByIndex(address,uint256)": {
        "details": "See {IERC721Enumerable-tokenOfOwnerByIndex}."
      },
      "tokenURI(uint256)": {
        "details": "See {IERC721Metadata-tokenURI}."
      },
      "totalSupply()": {
        "details": "See {IERC721Enumerable-totalSupply}."
      },
      "transferFrom(address,address,uint256)": {
        "details": "See {IERC721-transferFrom}."
      },
      "transferOwnership(address)": {
        "details": "Transfers ownership of the contract to a new account (`newOwner`). Can only be called by the current owner."
      }
    },
    "version": 1
  },
  "userdoc": {
    "kind": "user",
    "methods": {},
    "version": 1
  }
}